{
  "contractName": "LinniaPermissions",
  "abi": [
    {
      "constant": true,
      "inputs": [],
      "name": "hub",
      "outputs": [
        {
          "name": "",
          "type": "address"
        }
      ],
      "payable": false,
      "stateMutability": "view",
      "type": "function"
    },
    {
      "constant": true,
      "inputs": [
        {
          "name": "",
          "type": "bytes32"
        },
        {
          "name": "",
          "type": "address"
        }
      ],
      "name": "permissions",
      "outputs": [
        {
          "name": "canAccess",
          "type": "bool"
        },
        {
          "name": "dataUri",
          "type": "string"
        }
      ],
      "payable": false,
      "stateMutability": "view",
      "type": "function"
    },
    {
      "constant": false,
      "inputs": [],
      "name": "unpause",
      "outputs": [],
      "payable": false,
      "stateMutability": "nonpayable",
      "type": "function"
    },
    {
      "constant": true,
      "inputs": [],
      "name": "paused",
      "outputs": [
        {
          "name": "",
          "type": "bool"
        }
      ],
      "payable": false,
      "stateMutability": "view",
      "type": "function"
    },
    {
      "constant": false,
      "inputs": [],
      "name": "renounceOwnership",
      "outputs": [],
      "payable": false,
      "stateMutability": "nonpayable",
      "type": "function"
    },
    {
      "constant": false,
      "inputs": [],
      "name": "destroy",
      "outputs": [],
      "payable": false,
      "stateMutability": "nonpayable",
      "type": "function"
    },
    {
      "constant": false,
      "inputs": [],
      "name": "pause",
      "outputs": [],
      "payable": false,
      "stateMutability": "nonpayable",
      "type": "function"
    },
    {
      "constant": true,
      "inputs": [],
      "name": "owner",
      "outputs": [
        {
          "name": "",
          "type": "address"
        }
      ],
      "payable": false,
      "stateMutability": "view",
      "type": "function"
    },
    {
      "constant": false,
      "inputs": [
        {
          "name": "_newOwner",
          "type": "address"
        }
      ],
      "name": "transferOwnership",
      "outputs": [],
      "payable": false,
      "stateMutability": "nonpayable",
      "type": "function"
    },
    {
      "constant": false,
      "inputs": [
        {
          "name": "_recipient",
          "type": "address"
        }
      ],
      "name": "destroyAndSend",
      "outputs": [],
      "payable": false,
      "stateMutability": "nonpayable",
      "type": "function"
    },
    {
      "inputs": [
        {
          "name": "_hub",
          "type": "address"
        }
      ],
      "payable": false,
      "stateMutability": "nonpayable",
      "type": "constructor"
    },
    {
      "payable": false,
      "stateMutability": "nonpayable",
      "type": "fallback"
    },
    {
      "anonymous": false,
      "inputs": [
        {
          "indexed": true,
          "name": "dataHash",
          "type": "bytes32"
        },
        {
          "indexed": true,
          "name": "owner",
          "type": "address"
        },
        {
          "indexed": true,
          "name": "viewer",
          "type": "address"
        }
      ],
      "name": "LinniaAccessGranted",
      "type": "event"
    },
    {
      "anonymous": false,
      "inputs": [
        {
          "indexed": true,
          "name": "dataHash",
          "type": "bytes32"
        },
        {
          "indexed": true,
          "name": "owner",
          "type": "address"
        },
        {
          "indexed": true,
          "name": "viewer",
          "type": "address"
        }
      ],
      "name": "LinniaAccessRevoked",
      "type": "event"
    },
    {
      "anonymous": false,
      "inputs": [],
      "name": "Pause",
      "type": "event"
    },
    {
      "anonymous": false,
      "inputs": [],
      "name": "Unpause",
      "type": "event"
    },
    {
      "anonymous": false,
      "inputs": [
        {
          "indexed": true,
          "name": "previousOwner",
          "type": "address"
        }
      ],
      "name": "OwnershipRenounced",
      "type": "event"
    },
    {
      "anonymous": false,
      "inputs": [
        {
          "indexed": true,
          "name": "previousOwner",
          "type": "address"
        },
        {
          "indexed": true,
          "name": "newOwner",
          "type": "address"
        }
      ],
      "name": "OwnershipTransferred",
      "type": "event"
    },
    {
      "constant": true,
      "inputs": [
        {
          "name": "dataHash",
          "type": "bytes32"
        },
        {
          "name": "viewer",
          "type": "address"
        }
      ],
      "name": "checkAccess",
      "outputs": [
        {
          "name": "",
          "type": "bool"
        }
      ],
      "payable": false,
      "stateMutability": "view",
      "type": "function"
    },
    {
      "constant": false,
      "inputs": [
        {
          "name": "dataHash",
          "type": "bytes32"
        },
        {
          "name": "viewer",
          "type": "address"
        },
        {
          "name": "dataUri",
          "type": "string"
        }
      ],
      "name": "grantAccess",
      "outputs": [
        {
          "name": "",
          "type": "bool"
        }
      ],
      "payable": false,
      "stateMutability": "nonpayable",
      "type": "function"
    },
    {
      "constant": false,
      "inputs": [
        {
          "name": "dataHash",
          "type": "bytes32"
        },
        {
          "name": "viewer",
          "type": "address"
        }
      ],
      "name": "revokeAccess",
      "outputs": [
        {
          "name": "",
          "type": "bool"
        }
      ],
      "payable": false,
      "stateMutability": "nonpayable",
      "type": "function"
    }
  ],
  "bytecode": "0x608060405260008060146101000a81548160ff02191690831515021790555034801561002a57600080fd5b5060405160208061171a83398101806040528101908080519060200190929190505050336000806101000a81548173ffffffffffffffffffffffffffffffffffffffff021916908373ffffffffffffffffffffffffffffffffffffffff16021790555080600160006101000a81548173ffffffffffffffffffffffffffffffffffffffff021916908373ffffffffffffffffffffffffffffffffffffffff1602179055505061163c806100de6000396000f3006080604052600436106100c5576000357c0100000000000000000000000000000000000000000000000000000000900463ffffffff1680630e169119146100d4578063365a86fc146101555780633e1fd0da146101ac5780633ec50c6c146102155780633f4ba83a146102ea5780635c975abb14610301578063715018a61461033057806383197ef0146103475780638456cb591461035e5780638d53b208146103755780638da5cb5b146103de578063f2fde38b14610435578063f5074f4114610478575b3480156100d157600080fd5b50005b3480156100e057600080fd5b5061013b6004803603810190808035600019169060200190929190803573ffffffffffffffffffffffffffffffffffffffff1690602001909291908035906020019082018035906020019190919293919293905050506104bb565b604051808215151515815260200191505060405180910390f35b34801561016157600080fd5b5061016a6109ca565b604051808273ffffffffffffffffffffffffffffffffffffffff1673ffffffffffffffffffffffffffffffffffffffff16815260200191505060405180910390f35b3480156101b857600080fd5b506101fb6004803603810190808035600019169060200190929190803573ffffffffffffffffffffffffffffffffffffffff1690602001909291905050506109f0565b604051808215151515815260200191505060405180910390f35b34801561022157600080fd5b506102646004803603810190808035600019169060200190929190803573ffffffffffffffffffffffffffffffffffffffff169060200190929190505050610a63565b604051808315151515815260200180602001828103825283818151815260200191508051906020019080838360005b838110156102ae578082015181840152602081019050610293565b50505050905090810190601f1680156102db5780820380516001836020036101000a031916815260200191505b50935050505060405180910390f35b3480156102f657600080fd5b506102ff610b39565b005b34801561030d57600080fd5b50610316610bf7565b604051808215151515815260200191505060405180910390f35b34801561033c57600080fd5b50610345610c0a565b005b34801561035357600080fd5b5061035c610d0c565b005b34801561036a57600080fd5b50610373610da1565b005b34801561038157600080fd5b506103c46004803603810190808035600019169060200190929190803573ffffffffffffffffffffffffffffffffffffffff169060200190929190505050610e61565b604051808215151515815260200191505060405180910390f35b3480156103ea57600080fd5b506103f3611371565b604051808273ffffffffffffffffffffffffffffffffffffffff1673ffffffffffffffffffffffffffffffffffffffff16815260200191505060405180910390f35b34801561044157600080fd5b50610476600480360381019080803573ffffffffffffffffffffffffffffffffffffffff169060200190929190505050611396565b005b34801561048457600080fd5b506104b9600480360381019080803573ffffffffffffffffffffffffffffffffffffffff1690602001909291905050506113fd565b005b600060011515600160009054906101000a900473ffffffffffffffffffffffffffffffffffffffff1673ffffffffffffffffffffffffffffffffffffffff1663142ebf3c6040518163ffffffff167c0100000000000000000000000000000000000000000000000000000000028152600401602060405180830381600087803b15801561054757600080fd5b505af115801561055b573d6000803e3d6000fd5b505050506040513d602081101561057157600080fd5b810190808051906020019092919050505073ffffffffffffffffffffffffffffffffffffffff16634209fff1336040518263ffffffff167c0100000000000000000000000000000000000000000000000000000000028152600401808273ffffffffffffffffffffffffffffffffffffffff1673ffffffffffffffffffffffffffffffffffffffff168152602001915050602060405180830381600087803b15801561061c57600080fd5b505af1158015610630573d6000803e3d6000fd5b505050506040513d602081101561064657600080fd5b8101908080519060200190929190505050151514151561066557600080fd5b843373ffffffffffffffffffffffffffffffffffffffff16600160009054906101000a900473ffffffffffffffffffffffffffffffffffffffff1673ffffffffffffffffffffffffffffffffffffffff1663fc0d561e6040518163ffffffff167c0100000000000000000000000000000000000000000000000000000000028152600401602060405180830381600087803b15801561070357600080fd5b505af1158015610717573d6000803e3d6000fd5b505050506040513d602081101561072d57600080fd5b810190808051906020019092919050505073ffffffffffffffffffffffffffffffffffffffff166336880b82836040518263ffffffff167c0100000000000000000000000000000000000000000000000000000000028152600401808260001916600019168152602001915050602060405180830381600087803b1580156107b457600080fd5b505af11580156107c8573d6000803e3d6000fd5b505050506040513d60208110156107de57600080fd5b810190808051906020019092919050505073ffffffffffffffffffffffffffffffffffffffff1614151561081157600080fd5b600060149054906101000a900460ff1615151561082d57600080fd5b600073ffffffffffffffffffffffffffffffffffffffff168573ffffffffffffffffffffffffffffffffffffffff161415151561086957600080fd5b6000848490501415151561087c57600080fd5b604080519081016040528060011515815260200185858080601f01602080910402602001604051908101604052809392919081815260200183838082843782019150505050505081525060026000886000191660001916815260200190815260200160002060008773ffffffffffffffffffffffffffffffffffffffff1673ffffffffffffffffffffffffffffffffffffffff16815260200190815260200160002060008201518160000160006101000a81548160ff021916908315150217905550602082015181600101908051906020019061095a92919061156b565b509050508473ffffffffffffffffffffffffffffffffffffffff163373ffffffffffffffffffffffffffffffffffffffff1687600019167f856e51ebc7f08006c92844bb14083af588ac2d5c8cacc546c5cefb563bfd5b9a60405160405180910390a46001915050949350505050565b600160009054906101000a900473ffffffffffffffffffffffffffffffffffffffff1681565b600060026000846000191660001916815260200190815260200160002060008373ffffffffffffffffffffffffffffffffffffffff1673ffffffffffffffffffffffffffffffffffffffff16815260200190815260200160002060000160009054906101000a900460ff16905092915050565b6002602052816000526040600020602052806000526040600020600091509150508060000160009054906101000a900460ff1690806001018054600181600116156101000203166002900480601f016020809104026020016040519081016040528092919081815260200182805460018160011615610100020316600290048015610b2f5780601f10610b0457610100808354040283529160200191610b2f565b820191906000526020600020905b815481529060010190602001808311610b1257829003601f168201915b5050505050905082565b6000809054906101000a900473ffffffffffffffffffffffffffffffffffffffff1673ffffffffffffffffffffffffffffffffffffffff163373ffffffffffffffffffffffffffffffffffffffff16141515610b9457600080fd5b600060149054906101000a900460ff161515610baf57600080fd5b60008060146101000a81548160ff0219169083151502179055507f7805862f689e2f13df9f062ff482ad3ad112aca9e0847911ed832e158c525b3360405160405180910390a1565b600060149054906101000a900460ff1681565b6000809054906101000a900473ffffffffffffffffffffffffffffffffffffffff1673ffffffffffffffffffffffffffffffffffffffff163373ffffffffffffffffffffffffffffffffffffffff16141515610c6557600080fd5b6000809054906101000a900473ffffffffffffffffffffffffffffffffffffffff1673ffffffffffffffffffffffffffffffffffffffff167ff8df31144d9c2f0f6b59d69b8b98abd5459d07f2742c4df920b25aae33c6482060405160405180910390a260008060006101000a81548173ffffffffffffffffffffffffffffffffffffffff021916908373ffffffffffffffffffffffffffffffffffffffff160217905550565b6000809054906101000a900473ffffffffffffffffffffffffffffffffffffffff1673ffffffffffffffffffffffffffffffffffffffff163373ffffffffffffffffffffffffffffffffffffffff16141515610d6757600080fd5b6000809054906101000a900473ffffffffffffffffffffffffffffffffffffffff1673ffffffffffffffffffffffffffffffffffffffff16ff5b6000809054906101000a900473ffffffffffffffffffffffffffffffffffffffff1673ffffffffffffffffffffffffffffffffffffffff163373ffffffffffffffffffffffffffffffffffffffff16141515610dfc57600080fd5b600060149054906101000a900460ff16151515610e1857600080fd5b6001600060146101000a81548160ff0219169083151502179055507f6985a02210a168e66602d3235cb6db0e70f92b3ba4d376a33c0f3d9434bff62560405160405180910390a1565b600060011515600160009054906101000a900473ffffffffffffffffffffffffffffffffffffffff1673ffffffffffffffffffffffffffffffffffffffff1663142ebf3c6040518163ffffffff167c0100000000000000000000000000000000000000000000000000000000028152600401602060405180830381600087803b158015610eed57600080fd5b505af1158015610f01573d6000803e3d6000fd5b505050506040513d6020811015610f1757600080fd5b810190808051906020019092919050505073ffffffffffffffffffffffffffffffffffffffff16634209fff1336040518263ffffffff167c0100000000000000000000000000000000000000000000000000000000028152600401808273ffffffffffffffffffffffffffffffffffffffff1673ffffffffffffffffffffffffffffffffffffffff168152602001915050602060405180830381600087803b158015610fc257600080fd5b505af1158015610fd6573d6000803e3d6000fd5b505050506040513d6020811015610fec57600080fd5b8101908080519060200190929190505050151514151561100b57600080fd5b823373ffffffffffffffffffffffffffffffffffffffff16600160009054906101000a900473ffffffffffffffffffffffffffffffffffffffff1673ffffffffffffffffffffffffffffffffffffffff1663fc0d561e6040518163ffffffff167c0100000000000000000000000000000000000000000000000000000000028152600401602060405180830381600087803b1580156110a957600080fd5b505af11580156110bd573d6000803e3d6000fd5b505050506040513d60208110156110d357600080fd5b810190808051906020019092919050505073ffffffffffffffffffffffffffffffffffffffff166336880b82836040518263ffffffff167c0100000000000000000000000000000000000000000000000000000000028152600401808260001916600019168152602001915050602060405180830381600087803b15801561115a57600080fd5b505af115801561116e573d6000803e3d6000fd5b505050506040513d602081101561118457600080fd5b810190808051906020019092919050505073ffffffffffffffffffffffffffffffffffffffff161415156111b757600080fd5b600060149054906101000a900460ff161515156111d357600080fd5b60026000856000191660001916815260200190815260200160002060008473ffffffffffffffffffffffffffffffffffffffff1673ffffffffffffffffffffffffffffffffffffffff16815260200190815260200160002060000160009054906101000a900460ff16151561124757600080fd5b6040805190810160405280600015158152602001602060405190810160405280600081525081525060026000866000191660001916815260200190815260200160002060008573ffffffffffffffffffffffffffffffffffffffff1673ffffffffffffffffffffffffffffffffffffffff16815260200190815260200160002060008201518160000160006101000a81548160ff021916908315150217905550602082015181600101908051906020019061130392919061156b565b509050508273ffffffffffffffffffffffffffffffffffffffff163373ffffffffffffffffffffffffffffffffffffffff1685600019167f80e99666961275fd0320868e1a65f3bb0ca09434ca86115f7e16272745b45ec760405160405180910390a4600191505092915050565b6000809054906101000a900473ffffffffffffffffffffffffffffffffffffffff1681565b6000809054906101000a900473ffffffffffffffffffffffffffffffffffffffff1673ffffffffffffffffffffffffffffffffffffffff163373ffffffffffffffffffffffffffffffffffffffff161415156113f157600080fd5b6113fa81611471565b50565b6000809054906101000a900473ffffffffffffffffffffffffffffffffffffffff1673ffffffffffffffffffffffffffffffffffffffff163373ffffffffffffffffffffffffffffffffffffffff1614151561145857600080fd5b8073ffffffffffffffffffffffffffffffffffffffff16ff5b600073ffffffffffffffffffffffffffffffffffffffff168173ffffffffffffffffffffffffffffffffffffffff16141515156114ad57600080fd5b8073ffffffffffffffffffffffffffffffffffffffff166000809054906101000a900473ffffffffffffffffffffffffffffffffffffffff1673ffffffffffffffffffffffffffffffffffffffff167f8be0079c531659141344cd1fd0a4f28419497f9722a3daafe3b4186f6b6457e060405160405180910390a3806000806101000a81548173ffffffffffffffffffffffffffffffffffffffff021916908373ffffffffffffffffffffffffffffffffffffffff16021790555050565b828054600181600116156101000203166002900490600052602060002090601f016020900481019282601f106115ac57805160ff19168380011785556115da565b828001600101855582156115da579182015b828111156115d95782518255916020019190600101906115be565b5b5090506115e791906115eb565b5090565b61160d91905b808211156116095760008160009055506001016115f1565b5090565b905600a165627a7a72305820d651b9c559e1a39345159a8a7da01bc08c24d69ddb740dbcd74454ceefc4481b0029",
  "source": "pragma solidity 0.4.24;\n\nimport \"openzeppelin-solidity/contracts/lifecycle/Destructible.sol\";\nimport \"openzeppelin-solidity/contracts/lifecycle/Pausable.sol\";\nimport \"openzeppelin-solidity/contracts/ownership/Ownable.sol\";\n\nimport \"./LinniaHub.sol\";\nimport \"./LinniaRecords.sol\";\nimport \"./LinniaUsers.sol\";\n\n\ncontract LinniaPermissions is Ownable, Pausable, Destructible {\n    struct Permission {\n        bool canAccess;\n        // ipfs path of the data, encrypted to the viewer\n        string dataUri;\n    }\n\n    event LinniaAccessGranted(bytes32 indexed dataHash, address indexed owner,\n        address indexed viewer\n    );\n    event LinniaAccessRevoked(bytes32 indexed dataHash, address indexed owner,\n        address indexed viewer\n    );\n\n    LinniaHub public hub;\n    // dataHash => viewer => permission mapping\n    mapping(bytes32 => mapping(address => Permission)) public permissions;\n\n    /* Modifiers */\n    modifier onlyUser() {\n        require(hub.usersContract().isUser(msg.sender) == true);\n        _;\n    }\n\n    modifier onlyRecordOwnerOf(bytes32 dataHash) {\n        require(hub.recordsContract().recordOwnerOf(dataHash) == msg.sender);\n        _;\n    }\n\n    /* Constructor */\n    constructor(LinniaHub _hub) public {\n        hub = _hub;\n    }\n\n    /* Fallback function */\n    function () public { }\n\n    /* External functions */\n\n    /// Check if a viewer has access to a record\n    /// @param dataHash the hash of the unencrypted file\n    /// @param viewer the address being allowed to view the file\n    function checkAccess(bytes32 dataHash, address viewer)\n    view\n    external\n    returns (bool)\n    {\n        return permissions[dataHash][viewer].canAccess;\n    }\n\n    /// Give a viewer access to a linnia record\n    /// Called by owner of the record.\n    /// @param dataHash the data hash of the linnia record\n    /// @param viewer the user being permissioned to view the data\n    /// @param dataUri the ipfs path of the re-encrypted data\n    function grantAccess(bytes32 dataHash, address viewer, string dataUri)\n    onlyUser\n    onlyRecordOwnerOf(dataHash)\n    whenNotPaused\n    external\n    returns (bool)\n    {\n        // validate input\n        require(viewer != address(0));\n        require(bytes(dataUri).length != 0);\n\n        // TODO, Uncomment this to prevent grant access twice, It is commented for testing purposes\n        // access must not have already been granted\n        // require(!permissions[dataHash][viewer].canAccess);\n        permissions[dataHash][viewer] = Permission({\n            canAccess: true,\n            dataUri: dataUri\n            });\n        emit LinniaAccessGranted(dataHash, msg.sender, viewer);\n        return true;\n    }\n\n    /// Revoke a viewer access to a linnia record\n    /// Note that this does not necessarily remove the file from storage\n    /// @param dataHash the data hash of the linnia record\n    /// @param viewer the user that has permission to view the data\n    function revokeAccess(bytes32 dataHash, address viewer)\n    onlyUser\n    onlyRecordOwnerOf(dataHash)\n    whenNotPaused\n    external\n    returns (bool)\n    {\n        // access must have already been grated\n        require(permissions[dataHash][viewer].canAccess);\n        permissions[dataHash][viewer] = Permission({\n            canAccess: false,\n            dataUri: \"\"\n            });\n        emit LinniaAccessRevoked(dataHash, msg.sender, viewer);\n        return true;\n    }\n}\n",
  "sourcePath": "@linniaprotocol/linnia-smart-contracts/contracts/LinniaPermissions.sol",
  "compiler": {
    "name": "solc",
    "version": "0.4.24+commit.e67f0147.Emscripten.clang"
  },
  "schemaVersion": "2.0.1",
  "updatedAt": "2018-10-03T23:43:04.032Z"
}