{
  "contractName": "LinniaOffers",
  "abi": [
    {
      "constant": true,
      "inputs": [],
      "name": "ddexhub",
      "outputs": [
        {
          "name": "",
          "type": "address"
        }
      ],
      "payable": false,
      "stateMutability": "view",
      "type": "function"
    },
    {
      "constant": true,
      "inputs": [
        {
          "name": "",
          "type": "bytes32"
        },
        {
          "name": "",
          "type": "address"
        }
      ],
      "name": "offers",
      "outputs": [
        {
          "name": "hasOffered",
          "type": "bool"
        },
        {
          "name": "isFulfilled",
          "type": "bool"
        },
        {
          "name": "amount",
          "type": "uint256"
        },
        {
          "name": "publicKey",
          "type": "bytes"
        }
      ],
      "payable": false,
      "stateMutability": "view",
      "type": "function"
    },
    {
      "inputs": [
        {
          "name": "_ddexhub",
          "type": "address"
        }
      ],
      "payable": false,
      "stateMutability": "nonpayable",
      "type": "constructor"
    },
    {
      "payable": false,
      "stateMutability": "nonpayable",
      "type": "fallback"
    },
    {
      "anonymous": false,
      "inputs": [
        {
          "indexed": true,
          "name": "dataHash",
          "type": "bytes32"
        },
        {
          "indexed": true,
          "name": "buyer",
          "type": "address"
        },
        {
          "indexed": false,
          "name": "amount",
          "type": "uint256"
        }
      ],
      "name": "LinniaOfferMade",
      "type": "event"
    },
    {
      "anonymous": false,
      "inputs": [
        {
          "indexed": true,
          "name": "dataHash",
          "type": "bytes32"
        },
        {
          "indexed": true,
          "name": "buyer",
          "type": "address"
        }
      ],
      "name": "LinniaOfferFulfilled",
      "type": "event"
    },
    {
      "constant": false,
      "inputs": [
        {
          "name": "dataHash",
          "type": "bytes32"
        },
        {
          "name": "publicKey",
          "type": "bytes"
        },
        {
          "name": "amount",
          "type": "uint256"
        }
      ],
      "name": "makeOffer",
      "outputs": [
        {
          "name": "",
          "type": "bool"
        }
      ],
      "payable": false,
      "stateMutability": "nonpayable",
      "type": "function"
    },
    {
      "constant": false,
      "inputs": [
        {
          "name": "dataHash",
          "type": "bytes32"
        },
        {
          "name": "buyer",
          "type": "address"
        }
      ],
      "name": "approveOffer",
      "outputs": [
        {
          "name": "",
          "type": "bool"
        }
      ],
      "payable": false,
      "stateMutability": "nonpayable",
      "type": "function"
    }
  ],
  "bytecode": "0x608060405234801561001057600080fd5b5060405160208061187783398101806040528101908080519060200190929190505050806000806101000a81548173ffffffffffffffffffffffffffffffffffffffff021916908373ffffffffffffffffffffffffffffffffffffffff160217905550506117f4806100836000396000f300608060405260043610610062576000357c0100000000000000000000000000000000000000000000000000000000900463ffffffff16806306d8809f146100715780631d4968f9146100da5780638985b5ec14610173578063a5851902146101ca575b34801561006e57600080fd5b50005b34801561007d57600080fd5b506100c06004803603810190808035600019169060200190929190803573ffffffffffffffffffffffffffffffffffffffff1690602001909291905050506102b1565b604051808215151515815260200191505060405180910390f35b3480156100e657600080fd5b506101596004803603810190808035600019169060200190929190803590602001908201803590602001908080601f016020809104026020016040519081016040528093929190818152602001838380828437820191505050505050919291929080359060200190929190505050610ccc565b604051808215151515815260200191505060405180910390f35b34801561017f57600080fd5b506101886115e2565b604051808273ffffffffffffffffffffffffffffffffffffffff1673ffffffffffffffffffffffffffffffffffffffff16815260200191505060405180910390f35b3480156101d657600080fd5b506102196004803603810190808035600019169060200190929190803573ffffffffffffffffffffffffffffffffffffffff169060200190929190505050611607565b60405180851515151581526020018415151515815260200183815260200180602001828103825283818151815260200191508051906020019080838360005b83811015610273578082015181840152602081019050610258565b50505050905090810190601f1680156102a05780820380516001836020036101000a031916815260200191505b509550505050505060405180910390f35b60006102bb6116f6565b6000809054906101000a900473ffffffffffffffffffffffffffffffffffffffff1673ffffffffffffffffffffffffffffffffffffffff1663ee99205c6040518163ffffffff167c0100000000000000000000000000000000000000000000000000000000028152600401602060405180830381600087803b15801561034057600080fd5b505af1158015610354573d6000803e3d6000fd5b505050506040513d602081101561036a57600080fd5b810190808051906020019092919050505073ffffffffffffffffffffffffffffffffffffffff1663a44c341a336040518263ffffffff167c0100000000000000000000000000000000000000000000000000000000028152600401808273ffffffffffffffffffffffffffffffffffffffff1673ffffffffffffffffffffffffffffffffffffffff168152602001915050602060405180830381600087803b15801561041557600080fd5b505af1158015610429573d6000803e3d6000fd5b505050506040513d602081101561043f57600080fd5b8101908080519060200190929190505050151561045b57600080fd5b3373ffffffffffffffffffffffffffffffffffffffff166000809054906101000a900473ffffffffffffffffffffffffffffffffffffffff1673ffffffffffffffffffffffffffffffffffffffff1663934666e56040518163ffffffff167c0100000000000000000000000000000000000000000000000000000000028152600401602060405180830381600087803b1580156104f757600080fd5b505af115801561050b573d6000803e3d6000fd5b505050506040513d602081101561052157600080fd5b810190808051906020019092919050505073ffffffffffffffffffffffffffffffffffffffff1663fc0d561e6040518163ffffffff167c0100000000000000000000000000000000000000000000000000000000028152600401602060405180830381600087803b15801561059557600080fd5b505af11580156105a9573d6000803e3d6000fd5b505050506040513d60208110156105bf57600080fd5b810190808051906020019092919050505073ffffffffffffffffffffffffffffffffffffffff166336880b82866040518263ffffffff167c0100000000000000000000000000000000000000000000000000000000028152600401808260001916600019168152602001915050602060405180830381600087803b15801561064657600080fd5b505af115801561065a573d6000803e3d6000fd5b505050506040513d602081101561067057600080fd5b810190808051906020019092919050505073ffffffffffffffffffffffffffffffffffffffff161415156106a357600080fd5b60016000856000191660001916815260200190815260200160002060008473ffffffffffffffffffffffffffffffffffffffff1673ffffffffffffffffffffffffffffffffffffffff168152602001908152602001600020608060405190810160405290816000820160009054906101000a900460ff161515151581526020016000820160019054906101000a900460ff1615151515815260200160018201548152602001600282018054600181600116156101000203166002900480601f0160208091040260200160405190810160405280929190818152602001828054600181600116156101000203166002900480156107e05780601f106107b5576101008083540402835291602001916107e0565b820191906000526020600020905b8154815290600101906020018083116107c357829003601f168201915b5050505050815250509050806000015115156107fb57600080fd5b806020015115151561080c57600080fd5b6000809054906101000a900473ffffffffffffffffffffffffffffffffffffffff1673ffffffffffffffffffffffffffffffffffffffff1663934666e56040518163ffffffff167c0100000000000000000000000000000000000000000000000000000000028152600401602060405180830381600087803b15801561089157600080fd5b505af11580156108a5573d6000803e3d6000fd5b505050506040513d60208110156108bb57600080fd5b810190808051906020019092919050505073ffffffffffffffffffffffffffffffffffffffff1663cccb7c756040518163ffffffff167c0100000000000000000000000000000000000000000000000000000000028152600401602060405180830381600087803b15801561092f57600080fd5b505af1158015610943573d6000803e3d6000fd5b505050506040513d602081101561095957600080fd5b810190808051906020019092919050505073ffffffffffffffffffffffffffffffffffffffff16633e1fd0da85856040518363ffffffff167c01000000000000000000000000000000000000000000000000000000000281526004018083600019166000191681526020018273ffffffffffffffffffffffffffffffffffffffff1673ffffffffffffffffffffffffffffffffffffffff16815260200192505050602060405180830381600087803b158015610a1457600080fd5b505af1158015610a28573d6000803e3d6000fd5b505050506040513d6020811015610a3e57600080fd5b81019080805190602001909291905050501515610a5a57600080fd5b6000809054906101000a900473ffffffffffffffffffffffffffffffffffffffff1673ffffffffffffffffffffffffffffffffffffffff166355a373d66040518163ffffffff167c0100000000000000000000000000000000000000000000000000000000028152600401602060405180830381600087803b158015610adf57600080fd5b505af1158015610af3573d6000803e3d6000fd5b505050506040513d6020811015610b0957600080fd5b810190808051906020019092919050505073ffffffffffffffffffffffffffffffffffffffff1663a9059cbb3383604001516040518363ffffffff167c0100000000000000000000000000000000000000000000000000000000028152600401808373ffffffffffffffffffffffffffffffffffffffff1673ffffffffffffffffffffffffffffffffffffffff16815260200182815260200192505050602060405180830381600087803b158015610bc057600080fd5b505af1158015610bd4573d6000803e3d6000fd5b505050506040513d6020811015610bea57600080fd5b81019080805190602001909291905050501515610c0657600080fd5b6001806000866000191660001916815260200190815260200160002060003373ffffffffffffffffffffffffffffffffffffffff1673ffffffffffffffffffffffffffffffffffffffff16815260200190815260200160002060000160016101000a81548160ff0219169083151502179055503373ffffffffffffffffffffffffffffffffffffffff1684600019167f852762b27a8a1eeb36799e9d4686fa6fdf681657f6a6005c5222a89e7d06c1b560405160405180910390a3600191505092915050565b60008060009054906101000a900473ffffffffffffffffffffffffffffffffffffffff1673ffffffffffffffffffffffffffffffffffffffff1663934666e56040518163ffffffff167c0100000000000000000000000000000000000000000000000000000000028152600401602060405180830381600087803b158015610d5357600080fd5b505af1158015610d67573d6000803e3d6000fd5b505050506040513d6020811015610d7d57600080fd5b810190808051906020019092919050505073ffffffffffffffffffffffffffffffffffffffff1663142ebf3c6040518163ffffffff167c0100000000000000000000000000000000000000000000000000000000028152600401602060405180830381600087803b158015610df157600080fd5b505af1158015610e05573d6000803e3d6000fd5b505050506040513d6020811015610e1b57600080fd5b810190808051906020019092919050505073ffffffffffffffffffffffffffffffffffffffff16634209fff1336040518263ffffffff167c0100000000000000000000000000000000000000000000000000000000028152600401808273ffffffffffffffffffffffffffffffffffffffff1673ffffffffffffffffffffffffffffffffffffffff168152602001915050602060405180830381600087803b158015610ec657600080fd5b505af1158015610eda573d6000803e3d6000fd5b505050506040513d6020811015610ef057600080fd5b81019080805190602001909291905050501515610f0c57600080fd5b81806000809054906101000a900473ffffffffffffffffffffffffffffffffffffffff1673ffffffffffffffffffffffffffffffffffffffff166355a373d66040518163ffffffff167c0100000000000000000000000000000000000000000000000000000000028152600401602060405180830381600087803b158015610f9357600080fd5b505af1158015610fa7573d6000803e3d6000fd5b505050506040513d6020811015610fbd57600080fd5b810190808051906020019092919050505073ffffffffffffffffffffffffffffffffffffffff166370a08231336040518263ffffffff167c0100000000000000000000000000000000000000000000000000000000028152600401808273ffffffffffffffffffffffffffffffffffffffff1673ffffffffffffffffffffffffffffffffffffffff168152602001915050602060405180830381600087803b15801561106857600080fd5b505af115801561107c573d6000803e3d6000fd5b505050506040513d602081101561109257600080fd5b8101908080519060200190929190505050101515156110b057600080fd5b8460016000826000191660001916815260200190815260200160002060003373ffffffffffffffffffffffffffffffffffffffff1673ffffffffffffffffffffffffffffffffffffffff16815260200190815260200160002060000160009054906101000a900460ff1615151561112657600080fd5b6000809054906101000a900473ffffffffffffffffffffffffffffffffffffffff1673ffffffffffffffffffffffffffffffffffffffff1663ee99205c6040518163ffffffff167c0100000000000000000000000000000000000000000000000000000000028152600401602060405180830381600087803b1580156111ab57600080fd5b505af11580156111bf573d6000803e3d6000fd5b505050506040513d60208110156111d557600080fd5b810190808051906020019092919050505073ffffffffffffffffffffffffffffffffffffffff1663a44c341a336040518263ffffffff167c0100000000000000000000000000000000000000000000000000000000028152600401808273ffffffffffffffffffffffffffffffffffffffff1673ffffffffffffffffffffffffffffffffffffffff168152602001915050602060405180830381600087803b15801561128057600080fd5b505af1158015611294573d6000803e3d6000fd5b505050506040513d60208110156112aa57600080fd5b810190808051906020019092919050505015156112c657600080fd5b6000809054906101000a900473ffffffffffffffffffffffffffffffffffffffff1673ffffffffffffffffffffffffffffffffffffffff166355a373d66040518163ffffffff167c0100000000000000000000000000000000000000000000000000000000028152600401602060405180830381600087803b15801561134b57600080fd5b505af115801561135f573d6000803e3d6000fd5b505050506040513d602081101561137557600080fd5b810190808051906020019092919050505073ffffffffffffffffffffffffffffffffffffffff166323b872dd3330876040518463ffffffff167c0100000000000000000000000000000000000000000000000000000000028152600401808473ffffffffffffffffffffffffffffffffffffffff1673ffffffffffffffffffffffffffffffffffffffff1681526020018373ffffffffffffffffffffffffffffffffffffffff1673ffffffffffffffffffffffffffffffffffffffff1681526020018281526020019350505050602060405180830381600087803b15801561145c57600080fd5b505af1158015611470573d6000803e3d6000fd5b505050506040513d602081101561148657600080fd5b8101908080519060200190929190505050506080604051908101604052806001151581526020016000151581526020018581526020018681525060016000886000191660001916815260200190815260200160002060003373ffffffffffffffffffffffffffffffffffffffff1673ffffffffffffffffffffffffffffffffffffffff16815260200190815260200160002060008201518160000160006101000a81548160ff02191690831515021790555060208201518160000160016101000a81548160ff02191690831515021790555060408201518160010155606082015181600201908051906020019061157e929190611723565b509050503373ffffffffffffffffffffffffffffffffffffffff1686600019167f60c924022c75f112ef5a1abb3ea283d6569de8db8bdb3fa853fb9fb5b8efad09866040518082815260200191505060405180910390a36001925050509392505050565b6000809054906101000a900473ffffffffffffffffffffffffffffffffffffffff1681565b6001602052816000526040600020602052806000526040600020600091509150508060000160009054906101000a900460ff16908060000160019054906101000a900460ff1690806001015490806002018054600181600116156101000203166002900480601f0160208091040260200160405190810160405280929190818152602001828054600181600116156101000203166002900480156116ec5780601f106116c1576101008083540402835291602001916116ec565b820191906000526020600020905b8154815290600101906020018083116116cf57829003601f168201915b5050505050905084565b60806040519081016040528060001515815260200160001515815260200160008152602001606081525090565b828054600181600116156101000203166002900490600052602060002090601f016020900481019282601f1061176457805160ff1916838001178555611792565b82800160010185558215611792579182015b82811115611791578251825591602001919060010190611776565b5b50905061179f91906117a3565b5090565b6117c591905b808211156117c15760008160009055506001016117a9565b5090565b905600a165627a7a72305820016efeee9e13e12f321412263cb70c9d21268bfcc0ed422cba3097d621ed39f20029",
  "source": "pragma solidity 0.4.24;\n\nimport \"./LinniaDDEXHub.sol\";\n\n/**\n * @title Linnia Offer Contract\n */\n\n\ncontract LinniaOffers {\n\n    /** Struct of an offer being made\n    * @prop hasOffered Used to check whether the offer exists *\n    * @prop isFullfilled Whether or not the seller has excepted *\n    * @prop amount the amount of LIN being offered *\n    * @prop publicKey the public key to encrypt record data with if excepted *\n    */\n    struct Offer {\n        bool hasOffered;\n        bool isFulfilled;\n        uint amount;\n        bytes publicKey;\n    }\n\n    event LinniaOfferMade(\n        bytes32 indexed dataHash, address indexed buyer, uint amount\n    );\n\n    event LinniaOfferFulfilled(\n        bytes32 indexed dataHash, address indexed buyer\n    );\n\n    LinniaDDEXHub public ddexhub;\n\n    /* All offers being made */\n    /* dataHash => buyer address => offer */\n    mapping(bytes32 => mapping(address => Offer)) public offers;\n\n    /* Modifiers */\n\n    modifier onlyUser() {\n        require(ddexhub.hubContract().usersContract().isUser(msg.sender));\n        _;\n    }\n\n    modifier hasBalance(uint amount) {\n        require(ddexhub.tokenContract().balanceOf(msg.sender) >= amount);\n        _;\n    }\n\n    modifier hasNotOffered(bytes32 dataHash) {\n        require(!offers[dataHash][msg.sender].hasOffered);\n        _;\n    }\n\n    modifier onlyStaked() {\n        require(ddexhub.stakingContract().isUserStaked(msg.sender));\n        _;\n    }\n\n    /* Constructor */\n    constructor(LinniaDDEXHub _ddexhub) public {\n        ddexhub = _ddexhub;\n    }\n\n    /* Fallback function */\n    function () public { }\n\n    /**\n    * @param dataHash The record being made an offer for.\n    * @dev Freezes balance being offered in contract, creates offer and emits event\n    */\n    function makeOffer(bytes32 dataHash, bytes publicKey, uint amount)\n        public\n        onlyUser\n        hasBalance(amount)\n        hasNotOffered(dataHash)\n        onlyStaked\n        returns (bool)\n    {\n        /* @dev Puts offer balance in escrow */\n        ddexhub.tokenContract().transferFrom(msg.sender, address(this), amount);\n\n        /* @dev Creates new unfulfilled offer from buyer */\n        offers[dataHash][msg.sender] = Offer({\n            hasOffered: true,\n            isFulfilled: false,\n            publicKey: publicKey,\n            amount: amount\n        });\n\n        /* @dev Emit event for caching purposes */\n        emit LinniaOfferMade(dataHash, msg.sender, amount);\n\n        return true;\n    }\n\n        /**\n    * @param dataHash The record being made an offer for.\n    * @param buyer The address of the offerer\n    * @dev Fulfills an offer and gives the seller the escrowed LIN if the permission has been created\n    */\n    function approveOffer(bytes32 dataHash, address buyer)\n        public\n        onlyStaked\n        returns (bool)\n    {\n        /* @dev only record owner can approve */\n        require(ddexhub.hubContract().recordsContract().recordOwnerOf(dataHash) == msg.sender);\n\n        /* @dev pulls the offer from the contract state */\n        Offer memory offer = offers[dataHash][buyer];\n\n        /* @dev only approve made offers */\n        require(offer.hasOffered);\n\n        // /* @dev only approve unfulfilled offers */\n        require(!offer.isFulfilled);\n\n        // /* @dev make sure the permission has been created */\n        require(ddexhub.hubContract().permissionsContract().checkAccess(dataHash, buyer));\n\n        // /* @dev gives the escrowed balance to the seller/approver */\n        require(ddexhub.tokenContract().transfer(msg.sender, offer.amount));\n\n        offers[dataHash][msg.sender].isFulfilled = true;\n\n        /* @dev Emit event for caching purposes */\n        emit LinniaOfferFulfilled(dataHash, msg.sender);\n\n        return true;\n    }\n\n}\n",
  "sourcePath": "/Users/blaushmild/projects/linnia/linnia-ddex-smart-contracts/contracts/LinniaOffers.sol",
  "compiler": {
    "name": "solc",
    "version": "0.4.24+commit.e67f0147.Emscripten.clang"
  },
  "schemaVersion": "2.0.1",
  "updatedAt": "2018-10-03T23:43:04.843Z"
}