{
  "contractName": "LinniaStaking",
  "abi": [
    {
      "constant": true,
      "inputs": [
        {
          "name": "",
          "type": "address"
        }
      ],
      "name": "stakes",
      "outputs": [
        {
          "name": "hasStaked",
          "type": "bool"
        },
        {
          "name": "amountStaked",
          "type": "uint256"
        }
      ],
      "payable": false,
      "stateMutability": "view",
      "type": "function"
    },
    {
      "constant": true,
      "inputs": [],
      "name": "stakeAmount",
      "outputs": [
        {
          "name": "",
          "type": "uint256"
        }
      ],
      "payable": false,
      "stateMutability": "view",
      "type": "function"
    },
    {
      "constant": false,
      "inputs": [],
      "name": "renounceOwnership",
      "outputs": [],
      "payable": false,
      "stateMutability": "nonpayable",
      "type": "function"
    },
    {
      "constant": true,
      "inputs": [],
      "name": "ddexhub",
      "outputs": [
        {
          "name": "",
          "type": "address"
        }
      ],
      "payable": false,
      "stateMutability": "view",
      "type": "function"
    },
    {
      "constant": true,
      "inputs": [],
      "name": "owner",
      "outputs": [
        {
          "name": "",
          "type": "address"
        }
      ],
      "payable": false,
      "stateMutability": "view",
      "type": "function"
    },
    {
      "constant": false,
      "inputs": [
        {
          "name": "_newOwner",
          "type": "address"
        }
      ],
      "name": "transferOwnership",
      "outputs": [],
      "payable": false,
      "stateMutability": "nonpayable",
      "type": "function"
    },
    {
      "inputs": [
        {
          "name": "_ddexhub",
          "type": "address"
        }
      ],
      "payable": false,
      "stateMutability": "nonpayable",
      "type": "constructor"
    },
    {
      "payable": false,
      "stateMutability": "nonpayable",
      "type": "fallback"
    },
    {
      "anonymous": false,
      "inputs": [
        {
          "indexed": false,
          "name": "stakedAmount",
          "type": "uint256"
        },
        {
          "indexed": true,
          "name": "staker",
          "type": "address"
        }
      ],
      "name": "LinniaUserStaked",
      "type": "event"
    },
    {
      "anonymous": false,
      "inputs": [
        {
          "indexed": false,
          "name": "stakedAmount",
          "type": "uint256"
        },
        {
          "indexed": true,
          "name": "staker",
          "type": "address"
        }
      ],
      "name": "LinniaUserWithdrawedStake",
      "type": "event"
    },
    {
      "anonymous": false,
      "inputs": [
        {
          "indexed": true,
          "name": "previousOwner",
          "type": "address"
        }
      ],
      "name": "OwnershipRenounced",
      "type": "event"
    },
    {
      "anonymous": false,
      "inputs": [
        {
          "indexed": true,
          "name": "previousOwner",
          "type": "address"
        },
        {
          "indexed": true,
          "name": "newOwner",
          "type": "address"
        }
      ],
      "name": "OwnershipTransferred",
      "type": "event"
    },
    {
      "constant": false,
      "inputs": [],
      "name": "makeStake",
      "outputs": [
        {
          "name": "",
          "type": "bool"
        }
      ],
      "payable": false,
      "stateMutability": "nonpayable",
      "type": "function"
    },
    {
      "constant": false,
      "inputs": [],
      "name": "withdrawStake",
      "outputs": [
        {
          "name": "",
          "type": "bool"
        }
      ],
      "payable": false,
      "stateMutability": "nonpayable",
      "type": "function"
    },
    {
      "constant": false,
      "inputs": [
        {
          "name": "newAmount",
          "type": "uint256"
        }
      ],
      "name": "updateStake",
      "outputs": [
        {
          "name": "",
          "type": "bool"
        }
      ],
      "payable": false,
      "stateMutability": "nonpayable",
      "type": "function"
    },
    {
      "constant": true,
      "inputs": [
        {
          "name": "staker",
          "type": "address"
        }
      ],
      "name": "isUserStaked",
      "outputs": [
        {
          "name": "",
          "type": "bool"
        }
      ],
      "payable": false,
      "stateMutability": "view",
      "type": "function"
    }
  ],
  "bytecode": "0x6080604052606460015534801561001557600080fd5b506040516020806113c083398101806040528101908080519060200190929190505050336000806101000a81548173ffffffffffffffffffffffffffffffffffffffff021916908373ffffffffffffffffffffffffffffffffffffffff16021790555080600260006101000a81548173ffffffffffffffffffffffffffffffffffffffff021916908373ffffffffffffffffffffffffffffffffffffffff160217905550506112f7806100c96000396000f3006080604052600436106100a4576000357c0100000000000000000000000000000000000000000000000000000000900463ffffffff16806303f1a777146100b357806316934fc4146100e257806360c7dc4714610144578063715018a61461016f5780637c1f751f146101865780638985b5ec146101cb5780638da5cb5b14610222578063a44c341a14610279578063bed9d861146102d4578063f2fde38b14610303575b3480156100b057600080fd5b50005b3480156100bf57600080fd5b506100c8610346565b604051808215151515815260200191505060405180910390f35b3480156100ee57600080fd5b50610123600480360381019080803573ffffffffffffffffffffffffffffffffffffffff1690602001909291905050506109fa565b60405180831515151581526020018281526020019250505060405180910390f35b34801561015057600080fd5b50610159610a2b565b6040518082815260200191505060405180910390f35b34801561017b57600080fd5b50610184610a31565b005b34801561019257600080fd5b506101b160048036038101908080359060200190929190505050610b33565b604051808215151515815260200191505060405180910390f35b3480156101d757600080fd5b506101e0610ba0565b604051808273ffffffffffffffffffffffffffffffffffffffff1673ffffffffffffffffffffffffffffffffffffffff16815260200191505060405180910390f35b34801561022e57600080fd5b50610237610bc6565b604051808273ffffffffffffffffffffffffffffffffffffffff1673ffffffffffffffffffffffffffffffffffffffff16815260200191505060405180910390f35b34801561028557600080fd5b506102ba600480360381019080803573ffffffffffffffffffffffffffffffffffffffff169060200190929190505050610beb565b604051808215151515815260200191505060405180910390f35b3480156102e057600080fd5b506102e9610c44565b604051808215151515815260200191505060405180910390f35b34801561030f57600080fd5b50610344600480360381019080803573ffffffffffffffffffffffffffffffffffffffff16906020019092919050505061116a565b005b600060011515600260009054906101000a900473ffffffffffffffffffffffffffffffffffffffff1673ffffffffffffffffffffffffffffffffffffffff1663934666e56040518163ffffffff167c0100000000000000000000000000000000000000000000000000000000028152600401602060405180830381600087803b1580156103d257600080fd5b505af11580156103e6573d6000803e3d6000fd5b505050506040513d60208110156103fc57600080fd5b810190808051906020019092919050505073ffffffffffffffffffffffffffffffffffffffff1663142ebf3c6040518163ffffffff167c0100000000000000000000000000000000000000000000000000000000028152600401602060405180830381600087803b15801561047057600080fd5b505af1158015610484573d6000803e3d6000fd5b505050506040513d602081101561049a57600080fd5b810190808051906020019092919050505073ffffffffffffffffffffffffffffffffffffffff16634209fff1336040518263ffffffff167c0100000000000000000000000000000000000000000000000000000000028152600401808273ffffffffffffffffffffffffffffffffffffffff1673ffffffffffffffffffffffffffffffffffffffff168152602001915050602060405180830381600087803b15801561054557600080fd5b505af1158015610559573d6000803e3d6000fd5b505050506040513d602081101561056f57600080fd5b8101908080519060200190929190505050151514151561058e57600080fd5b600154600260009054906101000a900473ffffffffffffffffffffffffffffffffffffffff1673ffffffffffffffffffffffffffffffffffffffff166355a373d66040518163ffffffff167c0100000000000000000000000000000000000000000000000000000000028152600401602060405180830381600087803b15801561061757600080fd5b505af115801561062b573d6000803e3d6000fd5b505050506040513d602081101561064157600080fd5b810190808051906020019092919050505073ffffffffffffffffffffffffffffffffffffffff166370a08231336040518263ffffffff167c0100000000000000000000000000000000000000000000000000000000028152600401808273ffffffffffffffffffffffffffffffffffffffff1673ffffffffffffffffffffffffffffffffffffffff168152602001915050602060405180830381600087803b1580156106ec57600080fd5b505af1158015610700573d6000803e3d6000fd5b505050506040513d602081101561071657600080fd5b810190808051906020019092919050505011151561073357600080fd5b61073c33610beb565b15151561074857600080fd5b600260009054906101000a900473ffffffffffffffffffffffffffffffffffffffff1673ffffffffffffffffffffffffffffffffffffffff166355a373d66040518163ffffffff167c0100000000000000000000000000000000000000000000000000000000028152600401602060405180830381600087803b1580156107ce57600080fd5b505af11580156107e2573d6000803e3d6000fd5b505050506040513d60208110156107f857600080fd5b810190808051906020019092919050505073ffffffffffffffffffffffffffffffffffffffff166323b872dd33306001546040518463ffffffff167c0100000000000000000000000000000000000000000000000000000000028152600401808473ffffffffffffffffffffffffffffffffffffffff1673ffffffffffffffffffffffffffffffffffffffff1681526020018373ffffffffffffffffffffffffffffffffffffffff1673ffffffffffffffffffffffffffffffffffffffff1681526020018281526020019350505050602060405180830381600087803b1580156108e157600080fd5b505af11580156108f5573d6000803e3d6000fd5b505050506040513d602081101561090b57600080fd5b8101908080519060200190929190505050506040805190810160405280600115158152602001600154815250600360003373ffffffffffffffffffffffffffffffffffffffff1673ffffffffffffffffffffffffffffffffffffffff16815260200190815260200160002060008201518160000160006101000a81548160ff021916908315150217905550602082015181600101559050503373ffffffffffffffffffffffffffffffffffffffff167fecb927927620117e66852b374262285319a6d1721aa3ecaec13fbef28bad02a46001546040518082815260200191505060405180910390a26001905090565b60036020528060005260406000206000915090508060000160009054906101000a900460ff16908060010154905082565b60015481565b6000809054906101000a900473ffffffffffffffffffffffffffffffffffffffff1673ffffffffffffffffffffffffffffffffffffffff163373ffffffffffffffffffffffffffffffffffffffff16141515610a8c57600080fd5b6000809054906101000a900473ffffffffffffffffffffffffffffffffffffffff1673ffffffffffffffffffffffffffffffffffffffff167ff8df31144d9c2f0f6b59d69b8b98abd5459d07f2742c4df920b25aae33c6482060405160405180910390a260008060006101000a81548173ffffffffffffffffffffffffffffffffffffffff021916908373ffffffffffffffffffffffffffffffffffffffff160217905550565b60008060009054906101000a900473ffffffffffffffffffffffffffffffffffffffff1673ffffffffffffffffffffffffffffffffffffffff163373ffffffffffffffffffffffffffffffffffffffff16141515610b9057600080fd5b8160018190555060019050919050565b600260009054906101000a900473ffffffffffffffffffffffffffffffffffffffff1681565b6000809054906101000a900473ffffffffffffffffffffffffffffffffffffffff1681565b6000600360008373ffffffffffffffffffffffffffffffffffffffff1673ffffffffffffffffffffffffffffffffffffffff16815260200190815260200160002060000160009054906101000a900460ff169050919050565b600080610c5033610beb565b1515610c5b57600080fd5b60011515600260009054906101000a900473ffffffffffffffffffffffffffffffffffffffff1673ffffffffffffffffffffffffffffffffffffffff1663934666e56040518163ffffffff167c0100000000000000000000000000000000000000000000000000000000028152600401602060405180830381600087803b158015610ce557600080fd5b505af1158015610cf9573d6000803e3d6000fd5b505050506040513d6020811015610d0f57600080fd5b810190808051906020019092919050505073ffffffffffffffffffffffffffffffffffffffff1663142ebf3c6040518163ffffffff167c0100000000000000000000000000000000000000000000000000000000028152600401602060405180830381600087803b158015610d8357600080fd5b505af1158015610d97573d6000803e3d6000fd5b505050506040513d6020811015610dad57600080fd5b810190808051906020019092919050505073ffffffffffffffffffffffffffffffffffffffff16634209fff1336040518263ffffffff167c0100000000000000000000000000000000000000000000000000000000028152600401808273ffffffffffffffffffffffffffffffffffffffff1673ffffffffffffffffffffffffffffffffffffffff168152602001915050602060405180830381600087803b158015610e5857600080fd5b505af1158015610e6c573d6000803e3d6000fd5b505050506040513d6020811015610e8257600080fd5b81019080805190602001909291905050501515141515610ea157600080fd5b600360003373ffffffffffffffffffffffffffffffffffffffff1673ffffffffffffffffffffffffffffffffffffffff16815260200190815260200160002060010154905060408051908101604052806000151581526020016000815250600360003373ffffffffffffffffffffffffffffffffffffffff1673ffffffffffffffffffffffffffffffffffffffff16815260200190815260200160002060008201518160000160006101000a81548160ff02191690831515021790555060208201518160010155905050600260009054906101000a900473ffffffffffffffffffffffffffffffffffffffff1673ffffffffffffffffffffffffffffffffffffffff166355a373d66040518163ffffffff167c0100000000000000000000000000000000000000000000000000000000028152600401602060405180830381600087803b158015610ff157600080fd5b505af1158015611005573d6000803e3d6000fd5b505050506040513d602081101561101b57600080fd5b810190808051906020019092919050505073ffffffffffffffffffffffffffffffffffffffff1663a9059cbb33836040518363ffffffff167c0100000000000000000000000000000000000000000000000000000000028152600401808373ffffffffffffffffffffffffffffffffffffffff1673ffffffffffffffffffffffffffffffffffffffff16815260200182815260200192505050602060405180830381600087803b1580156110ce57600080fd5b505af11580156110e2573d6000803e3d6000fd5b505050506040513d60208110156110f857600080fd5b8101908080519060200190929190505050151561111457600080fd5b3373ffffffffffffffffffffffffffffffffffffffff167fc068d7df1f4441612bcede3f230d440dfb79c55c370f3dc2792b20a43a282709826040518082815260200191505060405180910390a2600191505090565b6000809054906101000a900473ffffffffffffffffffffffffffffffffffffffff1673ffffffffffffffffffffffffffffffffffffffff163373ffffffffffffffffffffffffffffffffffffffff161415156111c557600080fd5b6111ce816111d1565b50565b600073ffffffffffffffffffffffffffffffffffffffff168173ffffffffffffffffffffffffffffffffffffffff161415151561120d57600080fd5b8073ffffffffffffffffffffffffffffffffffffffff166000809054906101000a900473ffffffffffffffffffffffffffffffffffffffff1673ffffffffffffffffffffffffffffffffffffffff167f8be0079c531659141344cd1fd0a4f28419497f9722a3daafe3b4186f6b6457e060405160405180910390a3806000806101000a81548173ffffffffffffffffffffffffffffffffffffffff021916908373ffffffffffffffffffffffffffffffffffffffff160217905550505600a165627a7a72305820cc2f8b13bfd7014866ddfdbc4d9e4df5d50dc2556124a719acf6e83306dea5c80029",
  "source": "pragma solidity 0.4.24;\n\nimport \"openzeppelin-solidity/contracts/ownership/Ownable.sol\";\nimport \"./LinniaDDEXHub.sol\";\n\n /**\n * @title Linnia Staking Contract\n */\n\n\ncontract LinniaStaking is Ownable {\n      /** Struct of Stake\n    * @prop hasStaked - boolean to see if user has staked or not *\n    * @prop amountStaked - the amount staked by the user *\n    */\n     /** Stake amount\n    * @dev can be changed by owner*\n    */\n    uint public stakeAmount = 100;\n       /** Struct of Stake\n    * @prop hasStaked - boolean to see if user has staked or not *\n    * @prop amountStaked - the amount staked by the user *\n    */\n    struct Stake {\n        bool hasStaked;\n        uint amountStaked;\n    }\n    \n    event LinniaUserStaked(\n        uint stakedAmount, address indexed staker\n    );\n     \n    event LinniaUserWithdrawedStake(\n        uint stakedAmount, address indexed staker\n    );\n\n    LinniaDDEXHub public ddexhub;\n\n      /* All stakes */\n    /* user address => stake */\n    mapping(address => Stake) public stakes;\n      /* Modifiers */\n    modifier onlyUser() {\n        require(ddexhub.hubContract().usersContract().isUser(msg.sender) == true);\n        _;\n    }\n    modifier hasBalance() {\n        require(ddexhub.tokenContract().balanceOf(msg.sender) > stakeAmount);\n        _;\n    }\n    modifier hasNotStaked() {\n        require(!isUserStaked(msg.sender));\n        _;\n    }\n    modifier hasStaked() {\n        require(isUserStaked(msg.sender));\n        _;\n    }\n\n      /* Constructor */\n    constructor(LinniaDDEXHub _ddexhub) public {\n        ddexhub = _ddexhub;\n    }\n\n     /* Fallback function */\n    function () public { }\n      /**\n    * @dev stakes balance in this contract, creates stake and emits stake event\n    */\n\n    function makeStake()\n        external\n        onlyUser\n        hasBalance\n        hasNotStaked\n        returns (bool)\n    {\n        /* @dev Puts stake amount in escrow */\n        ddexhub.tokenContract().transferFrom(msg.sender, address(this), stakeAmount);\n         /* @dev Creates new stake of user */\n        stakes[msg.sender] = Stake({\n            hasStaked: true,\n            amountStaked: stakeAmount\n        });\n         /* @dev Emit event for stake  */\n        emit LinniaUserStaked(stakeAmount, msg.sender);\n        return true;\n    }\n\n    function withdrawStake()\n        external\n        hasStaked\n        onlyUser\n        returns(bool)\n        {   \n        uint userStakeAmount = stakes[msg.sender].amountStaked;\n        /* @dev Updates stake of user back to zero */\n        stakes[msg.sender] = Stake({\n            hasStaked: false,\n            amountStaked: 0\n        });\n        /* @dev Sends stake back to user */\n        require(ddexhub.tokenContract().transfer(msg.sender, userStakeAmount));\n        /* @dev Emit event for withdrawed stake  */\n        emit LinniaUserWithdrawedStake(userStakeAmount, msg.sender);\n        return true;\n    }\n\n       /** Change stake price\n    * @param newAmount to change stake price to, only if owner\n    */ \n\n    function updateStake(uint newAmount)\n        external\n        onlyOwner\n        returns(bool)\n        {\n        /* @dev Creates new stake amount */\n        stakeAmount = newAmount;\n        return true;\n    }\n\n       /** Check if user is staked\n    * @param staker - address of whom to be checked*\n    */\n\n    function isUserStaked(address staker)\n        public\n        view\n        returns(bool)\n        {\n        return stakes[staker].hasStaked;\n    }\n}\n",
  "sourcePath": "/Users/blaushmild/projects/linnia/linnia-ddex-smart-contracts/contracts/LinniaStaking.sol",
  "compiler": {
    "name": "solc",
    "version": "0.4.24+commit.e67f0147.Emscripten.clang"
  },
  "schemaVersion": "2.0.1",
  "updatedAt": "2018-10-03T23:43:04.846Z"
}