{
  "contractName": "Storage",
  "abi": [
    {
      "anonymous": false,
      "inputs": [
        {
          "indexed": true,
          "name": "dataHash",
          "type": "bytes32"
        },
        {
          "indexed": true,
          "name": "owner",
          "type": "address"
        }
      ],
      "name": "Store",
      "type": "event"
    },
    {
      "constant": false,
      "inputs": [
        {
          "name": "dataHash",
          "type": "bytes32"
        },
        {
          "name": "data",
          "type": "bytes"
        },
        {
          "name": "owner",
          "type": "address"
        }
      ],
      "name": "store",
      "outputs": [],
      "payable": false,
      "stateMutability": "nonpayable",
      "type": "function"
    }
  ],
  "bytecode": "0x608060405234801561001057600080fd5b5061022a806100206000396000f300608060405260043610610041576000357c0100000000000000000000000000000000000000000000000000000000900463ffffffff168063326f869514610046575b600080fd5b34801561005257600080fd5b506100db6004803603810190808035600019169060200190929190803590602001908201803590602001908080601f0160208091040260200160405190810160405280939291908181526020018383808284378201915050505050509192919290803573ffffffffffffffffffffffffffffffffffffffff1690602001909291905050506100dd565b005b816000808560001916600019168152602001908152602001600020908051906020019061010b929190610159565b508073ffffffffffffffffffffffffffffffffffffffff1683600019167f2f96688b73886d56579f9645a26571311c93f97529ae5ed40aaa4ea23c2a72ef60405160405180910390a3505050565b828054600181600116156101000203166002900490600052602060002090601f016020900481019282601f1061019a57805160ff19168380011785556101c8565b828001600101855582156101c8579182015b828111156101c75782518255916020019190600101906101ac565b5b5090506101d591906101d9565b5090565b6101fb91905b808211156101f75760008160009055506001016101df565b5090565b905600a165627a7a72305820187f180ab57ec73dfafdb7fcf1bfe5af572e351770186bb71df2d99878e60fe70029",
  "source": "contract Storage {\n    mapping (bytes32 => bytes) dataStorage;\n\n    event Store(bytes32 indexed dataHash, address indexed owner);\n\n    function store(bytes32 dataHash, bytes data, address owner) public {\n        dataStorage[dataHash] = data;\n        emit Store(dataHash, owner);\n    }\n}",
  "sourcePath": "/Users/jpschwartz/Documents/Hackathons/my-data-medical/contracts/Storage.sol",
  "compiler": {
    "name": "solc",
    "version": "0.4.24+commit.e67f0147.Emscripten.clang"
  },
  "schemaVersion": "2.0.1",
  "updatedAt": "2018-10-06T23:04:36.560Z"
}