{
  "contractName": "Storage",
  "abi": [
    {
      "anonymous": false,
      "inputs": [
        {
          "indexed": true,
          "name": "dataHash",
          "type": "bytes32"
        },
        {
          "indexed": true,
          "name": "owner",
          "type": "address"
        },
        {
          "indexed": true,
          "name": "sender",
          "type": "address"
        }
      ],
      "name": "Store",
      "type": "event"
    },
    {
      "constant": false,
      "inputs": [
        {
          "name": "dataHash",
          "type": "bytes32"
        },
        {
          "name": "data",
          "type": "string"
        },
        {
          "name": "owner",
          "type": "address"
        }
      ],
      "name": "store",
      "outputs": [],
      "payable": false,
      "stateMutability": "nonpayable",
      "type": "function"
    },
    {
      "constant": true,
      "inputs": [
        {
          "name": "dataHash",
          "type": "bytes32"
        }
      ],
      "name": "get",
      "outputs": [
        {
          "name": "data",
          "type": "string"
        }
      ],
      "payable": false,
      "stateMutability": "view",
      "type": "function"
    }
  ],
  "bytecode": "0x608060405234801561001057600080fd5b506103b2806100206000396000f30060806040526004361061004c576000357c0100000000000000000000000000000000000000000000000000000000900463ffffffff1680638eaa6ac01461005157806397f8ac08146100fb575b600080fd5b34801561005d57600080fd5b506100806004803603810190808035600019169060200190929190505050610192565b6040518080602001828103825283818151815260200191508051906020019080838360005b838110156100c05780820151818401526020810190506100a5565b50505050905090810190601f1680156100ed5780820380516001836020036101000a031916815260200191505b509250505060405180910390f35b34801561010757600080fd5b506101906004803603810190808035600019169060200190929190803590602001908201803590602001908080601f0160208091040260200160405190810160405280939291908181526020018383808284378201915050505050509192919290803573ffffffffffffffffffffffffffffffffffffffff16906020019092919050505061024e565b005b606060008083600019166000191681526020019081526020016000208054600181600116156101000203166002900480601f0160208091040260200160405190810160405280929190818152602001828054600181600116156101000203166002900480156102425780601f1061021757610100808354040283529160200191610242565b820191906000526020600020905b81548152906001019060200180831161022557829003601f168201915b50505050509050919050565b816000808560001916600019168152602001908152602001600020908051906020019061027c9291906102e1565b503373ffffffffffffffffffffffffffffffffffffffff168173ffffffffffffffffffffffffffffffffffffffff1684600019167f6c5cfe1ff538508ac44f59daaa8b6d77d471f07ec83a0ad730726debb659b00460405160405180910390a4505050565b828054600181600116156101000203166002900490600052602060002090601f016020900481019282601f1061032257805160ff1916838001178555610350565b82800160010185558215610350579182015b8281111561034f578251825591602001919060010190610334565b5b50905061035d9190610361565b5090565b61038391905b8082111561037f576000816000905550600101610367565b5090565b905600a165627a7a723058206d3669568b7b112f8add058c8a01b374b7355a6b7fcd7d37329ac2ed0b0c14ff0029",
  "source": "pragma solidity ^0.4.21;\n\ncontract Storage {\n    mapping (bytes32 => string) dataStorage;\n\n    event Store(bytes32 indexed dataHash, address indexed owner, address indexed sender);\n\n    function store(bytes32 dataHash, string data, address owner) public {\n        dataStorage[dataHash] = data;\n        Store(dataHash, owner, msg.sender);\n    }\n\n    function get(bytes32 dataHash) public view returns (string data) {\n        data = dataStorage[dataHash];\n    }\n}",
  "sourcePath": "/Users/jpschwartz/Documents/Hackathons/my-data-medical/contracts/Storage.sol",
  "compiler": {
    "name": "solc",
    "version": "0.4.24+commit.e67f0147.Emscripten.clang"
  },
  "schemaVersion": "2.0.1",
  "updatedAt": "2018-10-07T02:08:18.895Z"
}